:020000040800F2
:10000000C8200020690200080105000899040008C2
:10001000FD040008B5030008630E0008000000009E
:10002000000000000000000000000000C10A0008FD
:10003000B9030008000000007D090008D90B000882
:10004000830200088302000883020008830200087C
:10005000830200088302000883020008830200086C
:10006000830200088302000883020008830200085C
:10007000830200088302000883020008830200084C
:10008000830200088302000883020008830200083C
:10009000830200088302000883020008830200082C
:1000A000830200088302000883020008830200081C
:1000B000830200088302000883020008830200080C
:1000C00083020008830200088302000883020008FC
:1000D00083020008450C0008830200088302000820
:1000E00083020008830200088302000883020008DC
:1000F00083020008830200088302000883020008CC
:1001000083020008830200088302000883020008BB
:1001100083020008830200088302000883020008AB
:10012000830200088302000883020008830200089B
:10013000830200088302000883020008830200088B
:10014000830200088302000883020008830200087B
:10015000830200088302000883020008830200086B
:10016000830200088302000883020008830200085B
:10017000830200088302000883020008830200084B
:10018000830200088302000800F002F800F05CF827
:100190000AA090E8000C82448344AAF10107DA45E2
:1001A00001D100F051F8AFF2090EBAE80F0013F0D8
:1001B000010F18BFFB1A43F0010318472419000070
:1001C000441900000A444FF0000C10F8013B13F0F2
:1001D000070408BF10F8014B1D1108BF10F8015BA0
:1001E000641E05D010F8016B641E01F8016BF9D193
:1001F00013F0080F1EBF10F8014BAD1C0C1B09D1EA
:100200006D1E58BF01F801CBFAD505E014F8016B5B
:1002100001F8016B6D1EF9D59142D6D370470000ED
:100220000023002400250026103A28BF78C1FBD8FF
:10023000520728BF30C148BF0B6070471FB501F09F
:100240003DF81FBD10B510BD00F06EF81146FFF768
:10025000F5FF00F0F5FE00F0A0F803B4FFF7F2FFA1
:1002600003BC00F057FE00000948804709480047DA
:10027000FEE7FEE7FEE7FEE7FEE7FEE7FEE7FEE756
:10028000FEE7FEE704480549054A064B70470000B3
:10029000DD0B000889010008C81A0020C8200020D2
:1002A000C81C0020C81C0020704700000FB404497F
:1002B00010B503AA029800F009F810BC5DF814FB11
:1002C000941900207047704770477047074B70B50E
:1002D0000D467B4400F011F80446284600F020F853
:1002E00010B14FF0FF3070BD204670BD4F0D0000C3
:1002F00001694A1C02610878704700B58FB0CDE9EA
:1003000001310021059105497944CDE903101146D9
:10031000684600F02EF80FB000BD0000E5FFFFFFBB
:10032000007B00F080007047754600F03FF8AE4655
:1003300005006946534620F00700854618B020B5F1
:10034000FFF7A0FFBDE820404FF000064FF0000788
:100350004FF000084FF0000B21F00701AC46ACE86D
:10036000C009ACE8C009ACE8C009ACE8C0098D46DA
:1003700070472DE9F04106460024D6E90170F56882
:100380008046304603E04146B847641C3046A847E3
:100390000028F8D12046BDE8F08110B50446AFF33F
:1003A00000802046BDE81040FFF757BF0048704767
:1003B000641A002000BFFEE77047F0B50A4600212E
:1003C0000023002400BF3DE0012505FA01F3156874
:1003D00005EA03049C4234D105684F000326BE4061
:1003E000B543056015794E00B54006683543056094
:1003F0001579012D02D01579022D16D185684F008F
:100400000326BE40B543856055794E00B5408668E9
:1004100035438560456801268E40B5434560456893
:1004200096798E40B6B235434560C5684F000326C5
:10043000BE40B543C560D5794E00B540C66835436A
:10044000C560491C1029BFD3F0BDF0B500230024BE
:100450004D07ED0E02FA05F3CE1000F1200555F818
:1004600026504E07F70E0F26BE40B543CF1000F1C1
:10047000200646F82750CE1000F1200555F82650EA
:1004800045EA0304CE1000F1200545F82640F0BDF2
:10049000418370470183704700BFFEE710B580219C
:1004A0000748FFF7F7FF20210548FFF7F3FF20215A
:1004B0000348FFF7EDFF80210148FFF7E9FF10BD7A
:1004C0000000024010B580210548FFF7E3FF20211E
:1004D0000348FFF7DDFF20210148FFF7DBFF10BDD8
:1004E0000000024010B580210348FFF7D3FF8021B0
:1004F0000148FFF7CDFF10BD0000024000BFFEE73E
:100500007047000070B5002100230F22C4781CB38F
:10051000174C246804F4E064C4F5E064C4F30721D4
:10052000C1F10404E3B20A4144789C40E1B284780A
:10053000144021430C07210E0E4C057861550478B8
:1005400004F01F050124AC4005786D11AD0005F1E4
:10055000E025C5F8004109E0047804F01F050124F6
:10056000AC40054D0678761145F8264070BD000078
:100570000CED00E000E400E080E100E0024901430E
:10058000024A1160704700000000FA050CED00E01F
:1005900070B5002418E004F1B000002100F0D9F992
:1005A0000021084600F0D5F90021102000F0D1F913
:1005B000002505E00121002000F0CBF9681CC5B240
:1005C000802DF7DB601CC4B2082CE4DB70BD2DE984
:1005D000F05F06460F4690461C46DDF828A04FF017
:1005E000000BE11704EB5171C910A4EBC10131B943
:1005F0002046E11704EB5171C1F3C70506E0204620
:10060000E11704EB5171C910491CCDB23D4615E00C
:100610002946304600F0A2F8B1460BE059460BF1EE
:10062000010B1AF80100012100F093F909F1010012
:1006300000F0FF09C145F1DB681CC5B2A542E7DB4C
:10064000BDE8F09F1CB50121084600F099F9A020F3
:10065000009000208DF8060001208DF807008DF82D
:10066000040002208DF8050069463A48FFF7A5FE10
:10067000A0213948FFF70EFF0021AE2000F069F9F4
:100680000021084600F065F90021102000F061F912
:100690000021402000F05DF90021B02000F059F960
:1006A0000021812000F055F90021FF2000F051F9D0
:1006B0000021A12000F04DF90021A62000F049F909
:1006C0000021A82000F045F900213F2000F041F969
:1006D0000021C82000F03DF90021D32000F039F9B5
:1006E0000021084600F035F90021D52000F031F94D
:1006F0000021802000F02DF90021D82000F029F9F8
:100700000021052000F025F90021D92000F021F971
:100710000021F12000F01DF90021DA2000F019F984
:100720000021122000F015F90021DB2000F011F962
:100730000021302000F00DF900218D2000F009F992
:100740000021142000F005F90021AF2000F001F98C
:100750001CBD0000000002400004024070B50446C9
:100760000D4605F1B000002100F0F3F8102141EA38
:100770001410002100F0EDF804F00F00002100F04B
:10078000E8F870BD2DE9F04180460E461546002779
:1007900031464046FFF7E2FF00240AE0124A02EB2E
:1007A0008511085D012100F0D4F8781CC7B2601CE7
:1007B000C4B2102CF2DB701CC1B24046FFF7CEFF72
:1007C00000240CE06900491C074A02EB4111085D56
:1007D000012100F0BEF8781CC7B2601CC4B2102C16
:1007E000F0DBBDE8F0810000000000202DE9F047BB
:1007F00007460E469046994600250024A8F12000A1
:10080000C5B27F2F02DD0027B01CC6B2B9F1100FB0
:1008100024D131463846FFF7A1FF002408E004EB5D
:100820000511194A505C012100F093F8601CC4B214
:10083000082CF4DB701CC1B23846FFF78FFF002490
:1008400009E004EB051108310F4A505C012100F06A
:1008500080F8601CC4B2082CF3DB12E03146384645
:10086000FFF77CFF00240AE005EB4501074A02EB95
:100870004101085D012100F06CF8601CC4B2062C37
:10088000F2DBBDE8F0870000EE140008C612000895
:100890002DE9FF5F074691461E460E9D4FF0000A68
:1008A000002435E0301B401EC1B20A2000F0A4FC39
:1008B000B9FBF0F00A21B0FBF1F201FB1208BAF12A
:1008C000000F14D1701EA04211DDB8F1000F0CD141
:1008D000AB4605EBDB71491001FB0471C8B22B4636
:1008E00020220199FFF782FF10E04FF0010AAB468A
:1008F00005EBDB71491001FB0471C8B208F130014E
:10090000CAB22B460199FFF771FF00BF601CC4B249
:10091000B442C7DBBDE8FF9F2DE9F04104460F4616
:100920001546984600260FE0AA5D43463946204604
:10093000FFF75CFF04F10800C4B2782C02DD00244C
:10094000B81CC7B2701CC6B2A85D0028ECD1BDE8C7
:10095000F08170B504460D46802000F0A5F81DB169
:10096000E0B200F0C1FA02E0E0B200F0A7FA002025
:1009700000F09AF8322000F009FB70BD70470000CB
:1009800029B1064A12680243044B1A6004E0034A84
:1009900012688243014B1A607047000030380240F1
:1009A00029B1064A12680243044B1A6004E0034A64
:1009B00012688243014B1A607047000044380240BD
:1009C000F0B5002100220024022500260223324F28
:1009D0003F6807F00C0121B1042905D0082937D15F
:1009E00005E02E4F076036E02D4F076033E02A4FB9
:1009F0003F1F3F68C7F38056274F3F1F3F6807F0F0
:100A00003F036EB1264FB7FBF3F7DFF88CC0ACF1B4
:100A1000040CDCF800C0CCF3881C07FB0CF40CE0E1
:100A20001E4FB7FBF3F7DFF870C0ACF1040CDCF835
:100A300000C0CCF3881C07FB0CF4174F3F1F3F6826
:100A4000C7F301477F1C7D00B4FBF5F7076002E0A8
:100A5000124F076000BF00BF0F4F3F6807F0F00163
:100A60000909104F7A5C0768D74047600A4F3F6812
:100A700007F4E051890A0B4F7A5C4768D7408760DA
:100A8000054F3F6807F46041490B064F7A5C4768A1
:100A9000D740C760F0BD0000083802400024F400D1
:100AA00000127A008019002001460020034A1068D5
:100AB00020F0F00008431060704700000838024042
:100AC000704700000CB50020019000903448006889
:100AD00040F480303249086000BF3148006800F4BB
:100AE000003000900198401C0190009818B90198BE
:100AF000B0F5A04FF1D12A48006800F4003010B1E1
:100B00000120009001E0002000900098012846D1CB
:100B100023484030006840F080502149403108604F
:100B20002048006840F440401E4908601C480830D6
:100B300000681B49083108600846006840F400401E
:100B400008600846006840F4A05008601648091F75
:100B50000860081F006840F08070091F086000BF2F
:100B60000F48006800F000700028F9D040F20570CE
:100B70000E4908600A480830006820F00300084960
:100B8000083108600846006840F00200086000BFB5
:100B900003480830006800F00C000828F8D10CBDAC
:100BA000003802400070004008544007003C0240FA
:100BB000042808D14FF0E021096941F004014FF009
:100BC000E022116107E04FF0E021096921F0040102
:100BD0004FF0E022116170477047000010B51548D2
:100BE000006840F47000134908601348006840F042
:100BF00001001149086000200F49083108600E48C3
:100C000000680E4908400C4908600D48091D08603D
:100C1000081F006820F48020091F08600020064992
:100C20000C310860FFF74EFF4FF00060014980393A
:100C3000086010BD88ED00E000380240FFFFF6FEBE
:100C40001030002410B540F225511D4800F04AF83C
:100C500010B31B4800F000F9C4B21A48008800F431
:100C60000040C8B91748008800F4804060B10A2CE1
:100C700003D000201349088020E01248008840F487
:100C800000401049088019E00D2C06D10D4800885D
:100C900040F480400B49088010E00A480088C0F307
:100CA0000D0009490C5407480088401C054908807C
:100CB00008460088C72801DD0020088010BD00001C
:100CC00000100140981900209C19002021B1828950
:100CD00042F40052828104E082894DF6FF731A408B
:100CE0008281704770B50246002400230025002051
:100CF00040F66A16B14200D100BFC1F3421501F0BF
:100D00001F03012606FA03F3012D02D19689334011
:100D100006E0022D02D1168A334001E0968A334064
:100D20000C12012606FA04F41688344013B10CB1F3
:100D3000012000E0002070BDF0B50346002400262D
:100D40000025002040F66A17B94200D100BF1846BE
:100D5000C1F3421401F01F06012707FA06F5012C22
:100D600001D10C3004E0022C01D1103000E014302D
:100D70001AB107682F43076002E00768AF430760B6
:100D8000F0BD00002DE9FF4705460E460024A146B0
:100D900000BFA046B08900B100BF2C8A24F44054A3
:100DA000F08804432C82AC8941F20C608443B08803
:100DB00031890843718908430443AC81AC8A24F427
:100DC0004074B0890443AC826846FFF7F9FD2048BF
:100DD000854202D01F48854202D1DDF80C9001E027
:100DE000DDF80890A88900F4004040B109EBC90083
:100DF00000EB091031684900B0FBF1F707E009EB9F
:100E0000C90000EB091031688900B0FBF1F76420DC
:100E1000B7FBF0F004012009642101FB1078A889D8
:100E200000F4004040B1322000EBC800B0FBF1F00C
:100E300000F00700044308E0322000EB08106421B2
:100E4000B0FBF1F000F00F0004432C81BDE8FF87F8
:100E5000001001400014014001468888C0F30800DA
:100E6000704700BFFEE700002DE9F04105462C4623
:100E700080211148FFF70CFB002619E0274607F0F8
:100E80008007802F04D120210B48FFF703FB03E0EC
:100E900020210948FFF7FCFA6006040E802106486D
:100EA000FFF7F8FA80210448FFF7F2FA701CC6B287
:100EB000082EE3DBBDE8F0810000024010B50446D7
:100EC000FFF7ECFA7820FFF7CFFFFFF70BFB0020CE
:100ED000FFF7CAFFFFF706FB2046FFF7C5FFFFF746
:100EE00001FBFFF7EFFA10BD10B50446FFF7D6FA85
:100EF0007820FFF7B9FFFFF7F5FA4020FFF7B4FFBE
:100F0000FFF7F0FA2046FFF7AFFFFFF7EBFAFFF726
:100F1000D9FA10BD00BF704710B504466FF0040049
:100F2000FFF746FEE11704EB5171C1F3C701074A11
:100F300011701046007800EB4001C1EBC0104FF675
:100F4000FF7101EAC0000249088010BD901900201D
:100F50009219002070B504464FF4077094FBF0F02E
:100F6000C6B24FF4077094FBF0F100FB114085B25C
:100F700005E04FF4077000F02FF8701EC6B2002E87
:100F8000F7D115B1284600F027F870BD0146114A87
:100F900012784A434FF0E0235A6100229A611A46C0
:100FA000126942F001021A6100BF4FF0E02210699D
:100FB00000F001021AB100F48032002AF5D04FF09F
:100FC000E022126922F001024FF0E0231A610022B0
:100FD0009A617047901900200146114A12884A43CD
:100FE0004FF0E0235A6100229A611A46126942F0DA
:100FF00001021A6100BF4FF0E022106900F0010207
:101000001AB100F48032002AF5D04FF0E0221269C4
:1010100022F001024FF0E0231A6100229A6170472A
:101020009219002000BF054A128802F04002002AEF
:10103000F9D0C2B2014B9A80704700000010014005
:1010400008B5A020FFF768FF4FF4E13000F0E0F8AA
:101050004FF4A060FFF792FAFFF7F4FAFFF798FA5F
:1010600020249AE04FF4FA70FFF774FFFFF790FA2C
:10107000002211461046FFF785FB012200211220B5
:10108000FFF780FB022200212420FFF77BFB0322D5
:1010900000213620FFF776FB042200214820FFF7CD
:1010A00071FB052200215A20FFF76CFB10233BA2A5
:1010B00003210620FFF730FC10233DA2062100206B
:1010C000FFF72AFC10233CA206213F20FFF724FC57
:1010D0001023224606213020FFF788FB601CC4B293
:1010E0007E2C00DD202410200323224606210090C0
:1010F0006720FFF7CDFB4FF47A70FFF72BFF30A08E
:10110000FFF7D4F8334808238022002100900846D6
:10111000FFF75DFA4FF47A70FFF71CFF2EA0FFF780
:10112000C5F8304808238022002100900846FFF7C8
:101130004EFA4FF47A70FFF70DFF2B4808238022F8
:10114000002100900846FFF742FA4FF47A70FFF74B
:1011500001FF264808238022002100900846FFF75F
:1011600036FA4FF47A70FFF7F5FE21480823802203
:10117000002100900846FFF72AFA4FF47A70FFF733
:10118000E9FE1C4808238022002100900846FFF752
:101190001EFA4FF47A70FFF7DDFE63E76D63756446
:1011A00065762E74616F62616F2E636F6D00000053
:1011B00041534349493A0000434F44453A00000037
:1011C00074657374A1A27072696E7466206F6B0D82
:1011D0000A00000080010020BABAD7D6B2E2CAD411
:1011E0000D0A00008005002080090020800D0020ED
:1011F000801100208015002010B50246012000E07B
:1012000050430B1EA1F10104E1B2F9D110BD000061
:1012100010B588B0044601210846FFF7B1FB012153
:101220001020FFF7BDFB072209212248FFF70DF927
:1012300007220A211F48FFF708F94FF4C060069003
:1012400002208DF81C008DF81D0000208DF81E0076
:1012500001208DF81F0006A91648FFF7AEF802948A
:101260000020ADF80C00ADF80E00ADF81000ADF8A0
:1012700014000C20ADF8120002A90F48FFF782FD00
:1012800001210D48FFF722FD012240F225510A48B5
:10129000FFF752FD25208DF8040003208DF805008E
:1012A0008DF8060001208DF8070001A8FFF72AF944
:1012B00008B010BD00000240001001404FF0407027
:1012C000E1EE100A70470000000000000000002F4F
:1012D000000000000700070000147F147F140024A2
:1012E0002A7F2A12006264081323003649552250CF
:1012F00000000503000000001C2241000000412204
:101300001C000014083E08140008083E08080000ED
:1013100000A06000000808080808000060600000E5
:10132000002010080402003E5149453E0000427F63
:101330004000004261514946002141454B310018AF
:1013400014127F10002745454539003C4A49493071
:10135000000171090503003649494936000649492B
:10136000291E000036360000000056360000000836
:101370001422410000141414141400004122140813
:1013800000020151090600324959513E007C1211F8
:10139000127C007F49494936003E41414122007F8D
:1013A0004141221C007F49494941007F0909090147
:1013B000003E4149497A007F0808087F0000417FCC
:1013C0004100002040413F01007F08142241007F7E
:1013D00040404040007F020C027F007F0408107FE5
:1013E000003E4141413E007F09090906003E41514E
:1013F000215E007F0919294600464949493100010B
:10140000017F0101003F4040403F001F2040201F5E
:10141000003F4038403F0063140814630007087021
:10142000080700615149454300007F4141000055D4
:101430002A552A55000041417F00000402010204A0
:10144000004040404040000001020400002054548D
:101450005478007F484444380038444444200038DD
:101460004444487F00385454541800087E0901024F
:101470000018A4A4A47C007F080404780000447D24
:101480004000004080847D00007F10284400000060
:10149000417F4000007C04180478007C0804047834
:1014A00000384444443800FC242424180018242420
:1014B00018FC007C0804040800485454542000041C
:1014C0003F444020003C4040207C001C2040201C29
:1014D000003C4030403C004428102844001CA0A0A0
:1014E000A07C004464544C441414141414140000DC
:1014F00000000000000000000000000000000000EC
:1015000000F8000000000000003330000000001070
:101510000C06100C0600000000000000000040C097
:101520007840C0784000043F04043F040400007089
:1015300088FC08300000001820FF211E0000F00881
:10154000F000E018000000211C031E211E0000F026
:101550000888700000001E2123241927211010166E
:101560000E0000000000000000000000000000006D
:1015700000E01804020000000007182040000002EC
:101580000418E00000000040201807000000404060
:1015900080F0804040000202010F010202000000C2
:1015A00000F0000000000101011F01010100000026
:1015B00000000000000080B070000000000000008B
:1015C0000000000000000001010101010101000014
:1015D00000000000000000303000000000000000AB
:1015E000000080601804006018060100000000E0A0
:1015F00010080810E000000F102020100F0000104D
:1016000010F8000000000020203F202000000070A3
:10161000080808887000003028242221300000309B
:101620000888884830000018202020110E00000093
:10163000C02010F8000000070424243F240000F814
:101640000888880808000019212020110E0000E0F9
:10165000108888180000000F112020110E0000389B
:101660000808C83808000000003F000000000070B3
:10167000880808887000001C222121221C0000E03C
:1016800010080810E0000000312222110F000000B5
:1016900000C0C0000000000000303000000000006A
:1016A00000800000000000008060000000000000DA
:1016B0008040201008000001020408102000404073
:1016C00040404040400004040404040404000008B6
:1016D000102040800000002010080402010000706B
:1016E00048080808F0000000003036010000C03053
:1016F000C828E810E0000718272423140B00000076
:10170000C038E0000000203C23020227382008F8FF
:10171000888888700000203F202020110E00C030F3
:10172000080808083800071820202010080008F8CA
:1017300008080810E000203F202020100F0008F8C3
:101740008888E8081000203F20202320180008F88F
:101750008888E8081000203F200003000000C03007
:1017600008080838000007182020221E020008F888
:1017700008000008F808203F210101213F2000084F
:1017800008F8080800000020203F2020000000008A
:101790000808F8080800C08080807F00000008F872
:1017A00088C028180800203F20012638200008F8AB
:1017B000080000000000203F20202020300008F812
:1017C000F800F8F80800203F003F003F200008F82C
:1017D00030C00008F808203F200007183F00E01044
:1017E00008080810E0000F10202020100F0008F853
:1017F00008080808F000203F210101010000E01066
:1018000008080810E0000F18242438504F0008F88A
:10181000888888887000203F2000030C30200070EA
:101820008808080838000038202121221C001808E8
:1018300008F8080818000000203F2000000008F801
:1018400008000008F808001F202020201F0008784A
:10185000880000C83808000007380E010000F808AA
:1018600000F80008F800033C0700073C03000818D4
:1018700068808068180820302C03032C302008383A
:10188000C800C83808000000203F200000001008F1
:101890000808C83808002038262120201800000039
:1018A00000FE020202000000007F40404000000CE9
:1018B00030C000000000000000010638C000000237
:1018C0000202FE000000004040407F0000000000D7
:1018D00004020202040000000000000000000000FA
:1018E00000000000000080808080808080800002F6
:1018F00002040000000000000000000000000000E2
:101900008080808000000019242222223F2008F8D5
:10191000008080000000003F112020110E00000018
:10192000008080800000000E1120202011000000A7
:1019300000808088F800000E112020103F20000059
:10194000808080800000001F22222222130000805D
:1019500080F0888888180020203F202000000000A8
:10196000808080808000006B94949493600008F8DD
:10197000008080800000203F210000203F20008068
:101980009898000000000020203F20200000000068
:1019900000809898000000C08080807F000008F8D8
:1019A000000080808000203F24022D3020000008AD
:1019B00008F8000000000020203F20200000808068
:1019C000808080808000203F20003F20003F80807A
:1019D000008080800000203F210000203F20000088
:1019E000808080800000001F202020201F00808039
:1019F00000808000000080FFA12020110E00000068
:101A0000008080808000000E112020A0FF80808058
:101A100080008080800020203F2120000100000005
:101A200080808080800000332424242419000080DA
:101A300080E0808000000000001F202000008080E7
:101A4000000000808000001F202020103F208080A8
:101A500080000080808000010E3008060100808038
:101A60000080008080800F300C030C300F0000805D
:101A70008000808080000020312E0E312000808088
:101A800080000080808080818E70180601000080B8
:101A90008080808080000021302C222130000000D6
:101AA0000000807C020200000000003F4040000077
:101AB0000000FF00000000000000FF000000000226
:101AC000027C800000000040403F00000000000653
:101AD00001010202040400000000000000000000F8
:101AE000001B0008000000209C190000C401000831
:101AF000582200089C1900202C0700002002000832
:101B00000010138080EE888888E88F088878484E17
:101B100040C0167F2424247F0008168140300F30F7
:101B20004180051701E21CE037804020100C030EB5
:101B300010030C304080402C10109001000912104E
:101B400010FF101011161018082060203F10101000
:101B5000400D10102040F8601D828282FE0449066C
:101B60000911A01A80B9510217FF1F181610D0B81A
:101B700097840B1192947F11080D1120108C838093
:101B800041462810284443C0114FFE02224282726F
:101B9000050213FE2FFF100806010E0504134E80E8
:101BA0007F100A03050911FF118905C312E012F025
:101BB00069E1073D4428FF11AA44700B83013844B2
:101BC00082929274018328087C44FF017D7D7D040C
:101BD0004905647D01FF9A0102818A010B01366982
:101BE000419949FA0101011D38083F3F0303F313EE
:101BF00011011E01F1116181312D816111F1393B1A
:101C00004141072C01C1211EAB21C11439013936D4
:101C10000738D33303033F3F23E0E06A7FA81A7FEE
:101C2000BF4C0618060A213640407F40401C1F204A
:101C30004001AB201F14113A600E6C300C034601BA
:101C4000361C0707060178090404048444444484CC
:101C5000071C0484C405790E09110A79112940036F
:101C60004107072610181412112E0F1010100F0F15
:101C7000331F1026081012120D22186B0D120A596C
:101C800029590701605A8001013D20087F030C306B
:101C90000C037F2538545458257C04047805223CD5
:101CA00040407C17FFAAAAAA28080A2CFF681E2613
:101CB00049494932101D020408100F100A03050992
:101CC00011FF118905C312E012F072F8073D442894
:101CD000FF11AA44700B83013844829292740183ED
:101CE0001E7C44FF017D01990559BB9A0102818A3E
:101CF000010B013669419949FA010101204BF808AD
:101D0000011135F818608035806018F82B20200606
:101D1000312BE0101EAB10E014613937043E8868A7
:101D2000186A7FA71A7FBE4C0618060A1146404063
:101D30007F40401C1F204001AB201F141162603AFD
:101D4000602F01441E40202020C0ED190729EA2AF7
:101D50004005115A600E8918792959070149260C46
:101D60000A0A090C360F0808080F2C080F08151D61
:101D70000809090E0719181C09090918190A59290F
:101D8000590701605A8001013D20087F030C300C87
:101D9000037F2538545458257C04047805223C40A0
:101DA000407C17FFAAAAAA28080A2CFF681E264909
:101DB000494932101D020408100FD9D35CC0E0F06D
:101DC00001092117C129221DF8F8F8FC049EF8F03A
:101DD000E0C0803A29172AFC19991801141808FC48
:101DE000FEFFFFFF7F3F052901910A14FE17B97D11
:101DF0004AFC1D5E3F1F0F0F1F2932F85AF80C19BD
:101E000017B91801163507070301E96909151729DC
:101E1000E9290141591C491D990D091618011D098F
:101E20001527E91719D339010976804BE0F00141F4
:101E30000A717F804B1F3F01410A710780D14A3FE1
:101E40001D1BFCF801490B337F0F4B0F7F0D29172A
:101E50005AFC180220074A0F01092517811C0103AB
:101E6000071E1A1F018F0F0F0707030117191829E3
:101E7000174918011416C0C0C080801B8080081943
:101E80000A215909B913390A1913691DB913490AE5
:101E900031390A7913290909170AD9BE3C070707FE
:101EA000B329B039BD3A0113390AB913490A3913B4
:101EB0005D018080010A191C7C03070E0A2909199B
:101EC000015913C90A4A0F0A013A29C3000F421CDB
:101ED0003EBCC0E0E0EFEFE0E0C0B83E3E00101DC9
:101EE000FEFCFC8C8C8CACECEC8C9C9C9CFCFC9FDD
:101EF0000707CFF8FEFF0157FEF8CF0F0707100BBB
:101F0000C0F0F878383838F8F0C06C80E0F00B1189
:101F100017E0F03838F0E01A80B419011BC0C0C2D5
:101F2000E11946200DBBFBFBF9FFFFFBFBBB3BFFB1
:101F3000FF193A3E3838181818084901697EAC076D
:101F4000071F7E29013D3F06070F8124070703165F
:101F500080E0F87F1F200B87CFFFFC787078FFDFD1
:101F60008F1B01033636FDFF3F0301E60101070722
:101F700006180980FFFF07383F3F31011B3F3F8DA7
:101F8000011D1A0F6B4814C3E7EF1F3F3FBFBF3F50
:101F90003F1FCFEFC301070F0F0E496016E0F0FCA3
:101FA000DFCFC7C1C0C0C07FFFF1C08080C0E1FFEC
:101FB0007F1E1D1F7FFEE0121914E4F0F07039B788
:101FC0006129AA39CB011D3A03CA2B0F0FCF7A031F
:101FD0003C19DB8901391A19282929792029124944
:101FE0003C019F480880C0E0F0F0F07801190A54E5
:101FF000E0C0805DF0F8F8F8167901623039323BC4
:10200000F0F82D390C4AF80C4939012EB67EFFFF45
:10201000FF811A811042FF29081B80C06039011915
:10202000096A805F2B1F3F1C09100103333F1F28E3
:1020300016C0F1F3FF7F3F3E1E1E1C1C1C1E1E3EE1
:102040003F7FFFF3F1E06A5809070F0F0F07030303
:102050000101700803073FFFFEFCC0190F00123595
:10206000070F1F1F3F3F7F7F7F3F1F1F0F07070384
:10207000011A7FB86AC0D9411B80C012227FAD709F
:10208000F0F0E0191C80C0F018420F780BF8F8F857
:10209000606060E0C0E0E0074904013539CB2C0FF7
:1020A0000F0E0129F319F4F919491869E2190E38CC
:1020B000080C0C0C0F073F3F071A0F9569040142EB
:1020C0006EC0E070F0E0F8680980E0F8380C1C7829
:1020D000F010391F953870F0C08B80C00C093F7B21
:1020E0002EC0703C1F07E11BFFF8725680F0FC1FEA
:1020F000033C031FFE8336C0F87F0F012D010F7FC5
:10210000F877691001515E010F3F703E7D619E07B7
:102110003F7C783F6D2F030F3E707C3FAD0156181A
:1021200016808080C0C06060303010181818080811
:102130000C0C0C0808080B180B181030302020600D
:102140006040C0220151180BC0E030180C06020399
:10215000030101111982091A64080B4601010303E6
:10216000060C0C18F0E0891CFCFF03FA780BC0C0C9
:10217000C0E0F0F0F8FCFEFF014AFE01DAFC013B92
:10218000F8F0B50347FF3F280F031F7CE09F6FFF68
:10219000FFF7FFFF1F1F1F791EF7FFEF5FBF082C20
:1021A000BF5FEF161DFFBF1F1F0F00114CF7F7FF9A
:1021B0006F9FFFFFDFDFFFC8E0F8CE87017F0107D9
:1021C0001F3F7F7FFA3CBFBE3F017BBFBE1329018B
:1021D0001EFEFE7F7F3FA405550F0F07031C010164
:1021E00003014A07011A0F67690129170A4A01F218
:1021F000771C7EFEFE9C98000C14484848C89898AE
:10220000103060C08020125858C8ECECFEB8B0B056
:10221000B0B8FEECECEC48489A40132AEE130A31B1
:1022200040ED19EA100B0E0E0C1C1C1E1E3E1C0865
:102230002401070E0414070F0438091F3F343434F7
:10224000373737060B153818130917692C020304A2
:0822500004C50607080900009F
:040000050800018965
:00000001FF
