:020000040800F2
:100000007818002071020008C7030008BF03000829
:10001000C3030008210300083B0B00080000000098
:10002000000000000000000000000000D1080008EF
:100030002503000800000000AF080008E9090008D7
:100040008B0200088B0200088B0200088B0200085C
:100050008B0200088B0200088B0200088B0200084C
:100060008B0200088B0200088B0200088B0200083C
:100070008B0200088B0200088B0200088B0200082C
:100080008B0200088B0200088B0200088B0200081C
:100090008B0200088B0200088B0200088B0200080C
:1000A0008B0200088B0200088B0200088B020008FC
:1000B0008B0200088B0200088B0200088B020008EC
:1000C0008B0200088B0200088B0200088B020008DC
:1000D0008B020008550A00088B0200088B020008FA
:1000E0008B0200088B0200088B0200088B020008BC
:1000F0008B0200088B0200088B0200088B020008AC
:100100008B0200088B0200088B0200088B0200089B
:100110008B0200088B0200088B0200088B0200088B
:100120008B0200088B0200088B0200088B0200087B
:100130008B0200088B0200088B0200088B0200086B
:100140008B0200088B0200088B0200088B0200085B
:100150008B0200088B0200088B0200088B0200084B
:100160008B0200088B0200088B0200088B0200083B
:100170008B0200088B0200088B0200088B0200082B
:100180008B0200088B02000800F002F800F060F813
:100190000AA090E8000C82448344AAF10107DA45E2
:1001A00001D100F055F8AFF2090EBAE80F0013F0D4
:1001B000010F18BFFB1A43F0010318473813000062
:1001C0005813000010F8013B0A4413F0030408BF61
:1001D00010F8014B1D1108BF10F8015B641E05D01B
:1001E00010F8016B641E01F8016BF9D1002D15D0D8
:1001F00010F8014B03F00C030C2BA1EB04040ABF15
:1002000010F8013BA4EB8314A4EB032405F10103D4
:1002100014F8016B5B1E01F8016BF9D5914238BFF0
:1002200010F8013BD1D3704700230024002500269D
:10023000103A28BF78C1FBD8520728BF30C148BF49
:100240000B6070471FB500F044FD1FBD10B510BD19
:1002500000F033F81146FFF7F5FF00F0D3FC00F093
:1002600051F803B4FFF7F2FF03BC00F068FC000094
:100270000948804709480047FEE7FEE7FEE7FEE73A
:10028000FEE7FEE7FEE7FEE7FEE7FEE70448054976
:10029000054A064B70470000ED0900088901000877
:1002A000781200207818002078140020781400209C
:1002B00070477047704770477047754600F02CF8DC
:1002C000AE4605006946534620F00700854618B043
:1002D00020B5FFF7DBFFBDE820404FF000064FF0F0
:1002E00000074FF000084FF0000B21F00701AC466B
:1002F000ACE8C009ACE8C009ACE8C009ACE8C0098A
:100300008D46704710B50446AFF300802046BDE827
:100310001040FFF7A6BF00000048704714120020ED
:1003200000BFFEE77047F0B50A4600210023002415
:1003300000BF3DE0012505FA01F3156805EA030455
:100340009C4234D105684F000326BE40B54305608A
:1003500015794E00B5400668354305601579012DC5
:1003600002D01579022D16D185684F000326BE40B4
:10037000B543856055794E00B54086683543856044
:10038000456801268E40B5434560456896798E40A4
:10039000B6B235434560C5684F000326BE40B5433D
:1003A000C560D5794E00B540C6683543C560491C67
:1003B0001029BFD3F0BD418370470183704700BF50
:1003C000FEE700BFFEE7704702490143024A1160A1
:1003D000704700000000FA050CED00E070B5002445
:1003E00019E004F1B001C8B2002100F0FDF90021CC
:1003F000022000F0F9F90021102000F0F5F90025A5
:1004000005E00121002000F0EFF9681CC5B2802D45
:10041000F7DB601CC4B2082CE3DB70BD2DE9F05F94
:1004200006460F4690461C46DDF828A04FF0000B0C
:10043000E11704EB5171C910A4EBC10131B9204699
:10044000E11704EB5171C1F3C70506E02046E1173F
:1004500004EB5171C910491CCDB23D4615E0294647
:10046000304600F0DFF8B1460BE059460BF1010BC6
:100470001AF80100012100F0B7F909F1010000F0BC
:10048000FF09C145F1DB681CC5B2A542E7DBBDE849
:10049000F09F00001CB50121432000F009FA4FF441
:1004A000FC70009001208DF8040002208DF80500FA
:1004B00069465948FFF737FF4FF4FC715648FFF77C
:1004C0007CFF0320009069465448FFF72CFF03216E
:1004D0005248FFF772FF4FF40040009069465048C1
:1004E000FFF721FF4FF400414D48FFF766FF102151
:1004F0004948FFF762FF642000F042FB10214648A4
:10050000FFF759FF642000F03BFB10214248FFF742
:1005100054FF0021AE2000F067F90021022000F016
:1005200063F90021102000F05FF90021402000F065
:100530005BF90021812000F057F90021CF2000F065
:1005400053F90021A12000F04FF90021C82000F04C
:100550004BF90021A62000F047F90021A82000F067
:1005600043F900213F2000F03FF90021812000F0F5
:100570003BF90021FF2000F037F90021D32000F0E3
:1005800033F90021084600F02FF90021D52000F0B2
:100590002BF90021802000F027F90021D92000F05C
:1005A00023F90021F12000F01FF90021DA2000F0EA
:1005B0001BF90021122000F017F90021DB2000F0C8
:1005C00013F90021402000F00FF90021202000F055
:1005D0000BF90021022000F007F900218D2000F026
:1005E00003F90021142000F0FFF80021A42000F0FE
:1005F000FBF80021A62000F0F7F80021AF2000F062
:10060000F3F80021AF2000F0EFF8FFF7E7FE00213C
:10061000084600F007F81CBD000002400008024038
:100620000018024070B504460D4605F1B001C8B28D
:10063000002100F0D9F8102141EA1410002100F047
:10064000D3F804F00F0141F00100002100F0CCF8D4
:1006500070BD00002DE9F04180460E46154600278A
:1006600031464046FFF7DEFF00240AE0124A02EB63
:100670008511085D012100F0B7F8781CC7B2601C35
:10068000C4B2102CF2DB701CC1B24046FFF7CAFFA7
:1006900000240CE06900491C074A02EB4111085D87
:1006A000012100F0A1F8781CC7B2601CC4B2102C64
:1006B000F0DBBDE8F0810000000C00202DE9F041E6
:1006C00007460E46904600250024A8F12000C5B23A
:1006D0007F2F02DD0027B01CC6B231463846FFF737
:1006E000A1FF002408E004EB05110F4A505C012132
:1006F00000F07AF8601CC4B2082CF4DB701CC1B2A4
:100700003846FFF78FFF002409E004EB051108319C
:10071000054A505C012100F067F8601CC4B2082C47
:10072000F3DBBDE8F0810000040F00082DE9FF5F56
:10073000074691461D460E9E4FF0000A002433E006
:10074000281B401EC1B20A2000F0B8FAB9FBF0F035
:100750000A21B0FBF1F201FB1208BAF1000F13D12C
:10076000681EA04210DDB8F1000F0BD1B34606EBB6
:10077000DB71491001FB0471C8B220220199FFF717
:100780009DFF0FE04FF0010AB34606EBDB71491005
:1007900001FB0471C8B208F13001CAB20199FFF738
:1007A0008DFF00BF601CC4B2AC42C9DBBDE8FF9F37
:1007B0002DE9F04104460F46154600260EE0AA5DDD
:1007C00039462046FFF77AFF04F10800C4B2782CBE
:1007D00002DD0024B81CC7B2701CC6B2A85D002898
:1007E000EDD1BDE8F081000070B504460E4626B19B
:1007F00020211848FFF7E1FD03E020211548FFF70D
:10080000DAFD08211348FFF7D6FD002517E0402147
:100810001048FFF7D0FD04F0800020B180210D4882
:10082000FFF7CBFD03E080210A48FFF7C4FD40211C
:100830000848FFF7C2FD6006040E681CC5B2082D0B
:10084000E5DB08210348FFF7B8FD20210148FFF749
:10085000B4FD70BD0000024070B5012401250026E2
:10086000FFF7BCFD002201211046FFF7F3FE6420D4
:1008700000F086F900BF17E006F11001C9B20E467C
:10088000084622462946FFF7E5FE642000F078F985
:10089000601CC11700EB5171C910A0EBC10109B96F
:1008A000A81CC5B2601CC4B2152CE5DB70BD704736
:1008B00029B1064A12680243044B1A6004E0034A55
:1008C00012688243014B1A607047000030380240C2
:1008D000704700000CB5002001900090344800687B
:1008E00040F480303249086000BF3148006800F4AD
:1008F000003000900198401C0190009818B90198B0
:10090000B0F5A04FF1D12A48006800F4003010B1D2
:100910000120009001E0002000900098012846D1BD
:1009200023484030006840F0805021494031086041
:100930002048006840F440401E4908601C480830C8
:1009400000681B49083108600846006840F4004010
:1009500008600846006840F4A05008601648091F67
:100960000860081F006840F08070091F086000BF21
:100970000F48006800F000700028F9D040F20570C0
:100980000E4908600A480830006820F00300084952
:10099000083108600846006840F00200086000BFA7
:1009A00003480830006800F00C000828F8D10CBD9E
:1009B000003802400070004008544007003C0240EC
:1009C000042808D14FF0E021096941F004014FF0FB
:1009D000E022116107E04FF0E021096921F00401F4
:1009E0004FF0E022116170477047000010B51548C4
:1009F000006840F47000134908601348006840F034
:100A000001001149086000200F49083108600E48B4
:100A100000680E4908400C4908600D48091D08602F
:100A2000081F006820F48020091F08600020064984
:100A30000C310860FFF74EFF4FF00060014980392C
:100A4000086010BD88ED00E000380240FFFFF6FEB0
:100A50001030002410B540F225511D4800F03EF83A
:100A600010B31B4800F064F8C4B21A48008800F4C0
:100A70000040C8B91748008800F4804060B10A2CD3
:100A800003D000201349088020E01248008840F479
:100A900000401049088019E00D2C06D10D4800884F
:100AA00040F480400B49088010E00A480088C0F3F9
:100AB0000D0009490C5407480088401C054908806E
:100AC00008460088C72801DD0020088010BD00000E
:100AD00000100140481100204C11002070B5024662
:100AE000002400230025002040F66A16B14200D100
:100AF00000BFC1F3421501F01F03012606FA03F3FC
:100B0000012D02D19689334006E0022D02D1168ACA
:100B1000334001E0968A33400C12012606FA04F4B1
:100B20001688344013B10CB1012000E0002070BDE4
:100B300001468888C0F30800704700BFFEE700BF89
:100B40007047000010B504466FF00400FFF738FF4F
:100B5000E11704EB5171C1F3C701074A1170104648
:100B6000007800EB4001C1EBC0104FF6FF7101EAC5
:100B7000C0000249088010BD401100204211002031
:100B800070B504464FF4077094FBF0F0C6B24FF412
:100B9000077094FBF0F100FB114085B205E04FF4C3
:100BA000077000F009F8701EC6B2002EF7D115B11B
:100BB000284600F001F870BD0146114A12884A43E8
:100BC0004FF0E0235A6100229A611A46126942F0FE
:100BD00001021A6100BF4FF0E022106900F001022B
:100BE0001AB100F48032002AF5D04FF0E0221269E9
:100BF00022F001024FF0E0231A6100229A6170474F
:100C00004211002008B58020FFF79CFF4FF4A06040
:100C1000FFF7DAFBFFF73EFCFFF7E0FB20243AE0AA
:100C2000FFF71AFE41F27070FFF7AAFFFFF7D6FB3D
:100C300019A203210020FFF7BBFD1BA20621002003
:100C4000FFF7B6FD1AA206213F20FFF7B1FD2246AD
:100C500006213020FFF732FD601CC4B27E2C00DD7F
:100C60002024102003232246062100906720FFF74E
:100C70005DFD4FF4FA60FFF783FFFFF7AFFB0E480F
:100C800008238022002100900846FFF7C7FB4FF49D
:100C9000FA60FFF775FFC3E7312E3327204F4C452D
:100CA000442054455354000041534349493A0000FD
:100CB000434F44453A0000000000002010B50246B2
:100CC000012000E050430B1EA1F10104E1B2F9D173
:100CD00010BD4FF04070E1EE100A704700000000B8
:100CE00000000000002F00000000070007000014B3
:100CF0007F147F1400242A7F2A12006264081323C1
:100D000000364955225000000503000000001C2257
:100D10004100000041221C000014083E0814000895
:100D2000083E0808000000A0600000080808080845
:100D3000000060600000002010080402003E5149DD
:100D4000453E0000427F400000426151494600217B
:100D500041454B31001814127F1000274545453995
:100D6000003C4A49493000017109050300364949F0
:100D7000493600064949291E0000363600000000A9
:100D800056360000000814224100001414141414F4
:100D9000000041221408000201510906003249599D
:100DA000513E007C1211127C007F49494936003EB9
:100DB00041414122007F4141221C007F4949494174
:100DC000007F09090901003E4149497A007F08086E
:100DD000087F0000417F4100002040413F01007F2B
:100DE00008142241007F40404040007F020C027FF7
:100DF000007F0408107F003E4141413E007F090909
:100E00000906003E4151215E007F0919294600462E
:100E1000494949310001017F0101003F4040403F05
:100E2000001F2040201F003F4038403F006314084F
:100E3000146300070870080700615149454300002A
:100E40007F41410000552A552A55000041417F004D
:100E50000004020102040040404040400000010242
:100E60000400002054545478007F4844443800382B
:100E70004444442000384444487F003854545418B3
:100E800000087E0901020018A4A4A47C007F0804C5
:100E900004780000447D4000004080847D00007F95
:100EA000102844000000417F4000007C04180478B2
:100EB000007C0804047800384444443800FC2424AE
:100EC00024180018242418FC007C08040408004896
:100ED0005454542000043F444020003C4040207CB7
:100EE000001C2040201C003C4030403C00442810A6
:100EF0002844001CA0A0A07C004464544C4414145A
:100F00001414141400000000000000000000000091
:100F100000000000000000F80000000000000033A6
:100F20003000000000100C06100C0600000000004D
:100F30000000000040C07840C0784000043F040436
:100F40003F040400007088FC08300000001820FFF7
:100F5000211E0000F008F000E018000000211C0332
:100F60001E211E0000F00888700000001E212324AE
:100F70001927211010160E000000000000000000CC
:100F800000000000000000E018040200000000075C
:100F90001820400000020418E00000000040201863
:100FA00007000000404080F0804040000202010F36
:100FB00001020200000000F0000000000101011F1A
:100FC00001010100000000000000000080B070007E
:100FD000000000000000000000000000000101010E
:100FE000010101010000000000000000003030009D
:100FF0000000000000000000806018040060180677
:101000000100000000E010080810E000000F1020B0
:1010100020100F00001010F8000000000020203FFA
:101020002020000000700808088870000030282484
:101030002221300000300888884830000018202025
:1010400020110E000000C02010F80000000704244A
:10105000243F240000F8088888080800001921208F
:1010600020110E0000E0108888180000000F1120E9
:1010700020110E0000380808C83808000000003FA2
:10108000000000000070880808887000001C222101
:1010900021221C0000E010080810E00000003122AE
:1010A00022110F00000000C0C0000000000000304E
:1010B00030000000000000800000000000008060A0
:1010C0000000000000008040201008000001020421
:1010D0000810200040404040404040000404040408
:1010E00004040400000810204080000000201008C4
:1010F00004020100007048080808F00000000030F9
:1011000036010000C030C828E810E0000718272486
:1011100023140B000000C038E0000000203C230234
:101120000227382008F8888888700000203F202097
:1011300020110E00C03008080808380007182020C9
:101140002010080008F808080810E000203F2020C0
:1011500020100F0008F88888E8081000203F2020A1
:101160002320180008F88888E8081000203F200095
:1011700003000000C03008080838000007182020CD
:10118000221E020008F808000008F808203F21018C
:1011900001213F20000808F8080800000020203F37
:1011A0002020000000000808F8080800C0808080A7
:1011B0007F00000008F888C028180800203F2001A0
:1011C0002638200008F8080000000000203F2020FA
:1011D0002020300008F8F800F8F80800203F003F11
:1011E000003F200008F830C00008F808203F200029
:1011F00007183F00E01008080810E0000F1020203A
:1012000020100F0008F808080808F000203F21010E
:1012100001010000E01008080810E0000F18242465
:1012200038504F0008F8888888887000203F2000D8
:10123000030C30200070880808083800003820218E
:1012400021221C00180808F8080818000000203F98
:101250002000000008F808000008F808001F2020FF
:1012600020201F000878880000C8380800000738D0
:101270000E010000F80800F80008F800033C070021
:10128000073C0300081868808068180820302C0389
:10129000032C30200838C800C83808000000203F60
:1012A0002000000010080808C8380800203826214F
:1012B00020201800000000FE020202000000007F53
:1012C00040404000000C30C0000000000000000161
:1012D0000638C00000020202FE000000004040404C
:1012E0007F00000000000402020204000000000071
:1012F00000000000000000000000000080808080EE
:1013000080808080000202040000000000000000D5
:10131000000000000000808080800000001924226E
:1013200022223F2008F8008080000000003F1120AA
:1013300020110E000000008080800000000E1120AF
:1013400020201100000000808088F800000E11208D
:1013500020103F200000808080800000001F22229B
:1013600022221300008080F0888888180020203F07
:10137000202000000000808080808000006B94941A
:101380009493600008F8008080800000203F2100D6
:1013900000203F2000809898000000000020203F9F
:1013A00020200000000000809898000000C080808D
:1013B000807F000008F8000080808000203F240229
:1013C0002D302000000808F8000000000020203F19
:1013D000202000008080808080808000203F2000CE
:1013E0003F20003F8080008080800000203F21005F
:1013F00000203F200000808080800000001F20200F
:1014000020201F00808000808000000080FFA1203D
:1014100020110E000000008080808000000E11204E
:1014200020A0FF80808080008080800020203F21DD
:101430002000010000008080808080000033242490
:1014400024241900008080E0808000000000001F3C
:10145000202000008080000000808000001F2020ED
:1014600020103F20808080000080808000010E30AE
:101470000806010080800080008080800F300C030F
:101480000C300F0000808000808080000020312E12
:101490000E312000808080000080808080818E70EE
:1014A0001806010000808080808080000021302CA0
:1014B0002221300000000000807C020200000000B9
:1014C000003F404000000000FF000000000000005E
:1014D000FF0000000002027C800000000040403F4E
:1014E00000000000000601010202040400000000E8
:1014F0000000000014150008000000204C1100003E
:10150000C40100083C1900084C1100202C07000001
:101510002802000840120003050911FF118905C3C4
:1015200000E000F000F8000100083A4428FF11AA8A
:10153000440001500B83013844829292740183115C
:1015400020087C44FF017D7D7D04410540047D0130
:10155000FF6E920102613F033B01017E814191498F
:10156000F20101011BC230083F3F0303F3131101D5
:10157000100601F1116181402005816111F14733AD
:10158000414107200401C12120A321C11431193197
:1015900037040736D33303033F3F426006E0E000E1
:1015A000007FA8127FBF40040618060A100800003A
:1015B00040407F4040A410041F204001A3201F147E
:1015C0003300600E6004300C03460534C21004077B
:1015D0000706017009040404844444448407800518
:1015E0000484C4041501120A71112140073D070744
:1015F000C9200F0000101814121100000F10101055
:101600000F0F131F1015600D081012120D00001897
:1016100000000D120A51295130015E015280010172
:101620003B4514047F030CA915DE1C05385454589F
:101630002503080A2004047800003C40407C200078
:10164000092CFFAAAAAA280800FF68100626494903
:101650004932101005020408100F0D6F00049D019F
:10166000040D9D0004156343F80801240500F818D3
:1016700060E82404806018235720202923E01021EB
:10168000A310E01449B4313908043C886818630D8C
:1016900015FF037DEA039DFF0371144DFF031D0633
:1016A000043D2E040942E91C0640202020C04A04C3
:1016B000110721EA3E40520452600E8118712951EF
:1016C000070D4769031C060C0A0A090C0004156B78
:1016D0002D00042004080F081510050809090E073D
:1016E0001D180430050909090F0A512951070DFF7A
:1016F00000040D220004018501295C4AF860180AE3
:10170000F828A8A8E8A8A828F8D311012EF8E1061F
:10171000100A0000C8E818909090F8040553CC1EF9
:1017200003C0071E1FB7071D330724111F0A0A0A2B
:101730000B0B0B0A1F00101008040201292C0510C6
:10174000000404D403198302FF000101FF0101CA50
:1017500001100690D0D0D0F0040C0412D0D090C963
:101760000830060404021F1B0102161F401C06B0AD
:1017700090D090101F060E13F0BB091D9C090008A5
:10178000130F120A0003101041000D138090A000E7
:1017900020A0A03020A06020401F080FD5090C0811
:1017A00015141312131418109D06000713D0E0A08F
:1017B000A0E0A03F1C0B0000130B0B16121F02062B
:1017C000D3030114C00C0A14200090604040604014
:1017D00060590410061C02001F05010715151501AC
:1017E00036E03D0F15D0D0670B040D150C030E121B
:1017F000121612121A030408004680830D15490AB6
:101800001C051F08000F8F04051681140680E010C8
:1018100080403F6D8307ED06091407001F0008068E
:10182000017D0716010600000814806020A010202A
:10183000607F040C1418060808051D1205090D1216
:10184000801EC0070B12F0040D15F1071E1EB50B0C
:101850001DB10B11050E141E660D1D2C082320F062
:10186000050D15C60D1C04111915840D1F150984CD
:101870000D0D1385071C047040C0A9050C0513103D
:10188000D030303B0C1005130C06093C0F15110F1E
:10189000EE0D1EE073061310D0410913BF1D75082D
:1018A000240504070004FF0916000F1C1090610DA9
:1018B0000E1C0B440C1980000A13E05060E0C0407D
:1018C00040E04080180508100B0B7C3E13FB0C0118
:1018D0004F40100800D0F050F050D0C606149001D0
:1018E00028040F1514FB25C20D1253090C0C15808A
:1018F0008040C0A0A090A0A0C040080D431E1201CF
:101900000515FF1FE0305C0A080415C02030C03FF9
:10191000001FDD09000415011112C01EE07D0B4DF2
:10192000C0040615B0C0080915170C1312171E16AF
:0C19300017C00D1E1F0F0E2709F2070044
:040000050800018965
:00000001FF
